:020000040800F2
:1000000000500020AD5B0008395A0008415A000832
:10001000495A0008515A0008595A000800000000C7
:10002000000000000000000000000000615A00080D
:100030006D5A000800000000795A0008855A00082F
:10004000F55B0008F55B0008F55B0008F55B000850
:10005000F55B0008F55B0008F55B0008F55B000840
:10006000F55B0008F55B0008F55B0008F55B000830
:10007000F55B0008F55B0008F55B0008F55B000820
:10008000F55B0008F55B0008F55B0008F55B000810
:10009000F55B0008F55B0008F55B0008F55B000800
:1000A000F55B0008F55B0008F55B0008F55B0008F0
:1000B000F55B0008F55B0008F55B0008CD5A000809
:1000C000E15A0008F55B0008F55B0008F55B0008E5
:1000D000F55B0008915A0008A55A0008B95A0008B3
:1000E000F55B0008F55B0008F55B00080000000008
:1000F0000000000000000000000000000000000000
:0C01000000000000000000005FF808F1A3
:100110004FF0FF0C1CEAD0521EBF1CEAD15392EAEA
:100120000C0F93EA0C0F6FD01A4480EA010C4002C6
:1001300018BF5FEA41211ED04FF0006343EA501020
:1001400043EA5111A0FB01310CF00040B1F5000F62
:100150003EBF490041EAD3715B0040EA010062F111
:100160007F02FD2A1DD8B3F1004F40EBC25008BFFB
:1001700020F00100704790F0000F0CF0004C08BF19
:1001800049024CEA502040EA51207F3AC2BFD2F1E6
:10019000FF0340EAC250704740F400004FF00003F4
:1001A000013A5DDC12F1190FDCBF00F0004070472E
:1001B000C2F10002410021FA02F1C2F1200200FA6C
:1001C00002FC5FEA310040F1000053EA4C0308BF33
:1001D00020EADC70704792F0000F00F0004C02BF84
:1001E000400010F4000F013AF9D040EA0C0093F0FF
:1001F000000F01F0004C02BF490011F4000F013B59
:10020000F9D041EA0C018FE70CEAD15392EA0C0FC6
:1002100018BF93EA0C0F0AD030F0004C18BF31F031
:10022000004CD8D180EA010000F00040704790F007
:10023000000F17BF90F0004F084691F0000F91F0AB
:10024000004F14D092EA0C0F01D142020FD193EA71
:100250000C0F03D14B0218BF084608D180EA0100F9
:1002600000F0004040F0FE4040F40000704740F0D5
:10027000FE4040F44000704780F0004002E000BFC4
:1002800081F0004142001FBF5FEA410392EA030F81
:100290007FEA226C7FEA236C6AD04FEA1262D2EBCB
:1002A0001363C1BFD218414048404140B8BF5B42D0
:1002B000192B88BF704710F0004F40F4000020F069
:1002C0007F4018BF404211F0004F41F4000121F07F
:1002D0007F4118BF494292EA030F3FD0A2F10102C9
:1002E00041FA03FC10EB0C00C3F1200301FA03F107
:1002F00000F0004302D5494260EB4000B0F5000F2A
:1003000013D3B0F1807F06D340084FEA310102F1E8
:100310000102FE2A51D2B1F1004F40EBC25008BF9A
:1003200020F0010040EA03007047490040EB000064
:10033000013A28BFB0F5000FEDD2B0FA80FCACF165
:10034000080CB2EB0C0200FA0CF0AABF00EBC25092
:1003500052421843BCBFD0401843704792F0000F80
:1003600081F4000106BF80F400000132013BB5E7D3
:100370004FEA41037FEA226C18BF7FEA236C21D049
:1003800092EA030F04D092F0000F08BF08467047AE
:1003900090EA010F1CBF0020704712F07F4F04D17C
:1003A000400028BF40F00040704712F100723CBF8F
:1003B00000F50000704700F0004343F0FE4040F4B9
:1003C000000070477FEA226216BF08467FEA236377
:1003D0000146420206BF5FEA412390EA010F40F462
:1003E000800070474FF0000304E000BF10F00043AE
:1003F00048BF40425FEA000C08BF704743F0964395
:1004000001464FF000001CE050EA010208BF7047AF
:100410004FF000030AE000BF50EA010208BF704736
:1004200011F0004302D5404261EB41015FEA010C4B
:1004300002BF84460146002043F0B64308BFA3F143
:100440008053A3F50003BCFA8CF2083AA3EBC25325
:1004500010DB01FA02FC634400FA02FCC2F1200244
:10046000BCF1004F20FA02F243EB020008BF20F07B
:100470000100704702F1200201FA02FCC2F12002E1
:1004800050EA4C0021FA02F243EB020008BF20EAD6
:10049000DC7070474FF0FF3C06E000BF4FF0010CEE
:1004A00002E000BF4FF0010C4DF804CD4FEA4002CE
:1004B0004FEA41037FEA226C18BF7FEA236C11D018
:1004C00001B052EA530C18BF90EA010F58BFB2EBCB
:1004D000030088BFC81738BF6FEAE17018BF40F04B
:1004E000010070477FEA226C02D15FEA402C05D1FF
:1004F0007FEA236CE4D15FEA412CE1D05DF8040B84
:10050000704700BF844608466146FFE70FB5FFF716
:10051000C9FF002848BF10F1000F0FBD4DF808EDCE
:10052000FFF7F4FF0CBF012000205DF808FB00BFBF
:100530004DF808EDFFF7EAFF34BF012000205DF819
:1005400008FB00BF4DF808EDFFF7E0FF94BF012066
:1005500000205DF808FB00BF4DF808EDFFF7D2FF63
:1005600094BF012000205DF808FB00BF4DF808EDA6
:10057000FFF7C8FF34BF012000205DF808FB00BF73
:100580004FEA4002B2F1FE4F0FD34FF09E03B3EBA0
:1005900012620DD94FEA002343F0004310F0004FE0
:1005A00023FA02F018BF404270474FF00000704736
:1005B00012F1610F01D1420205D110F0004008BFD5
:1005C0006FF0004070474FF0000070477BB972B980
:1005D0000029BEBF00204FF0004106E008BF002800
:1005E0001CBF6FF000414FF0FF3000F03FB8ADF19D
:1005F000080C6DE904CE002909DB002B1ADB0AF098
:1006000035FBDDF804E0DDE9022304B07047404229
:1006100061EB4101002B1BDB0AF028FBDDF804E055
:10062000DDE9022304B0404261EB4101524263EB39
:1006300043037047524263EB43030AF017FBDDF8B4
:1006400004E0DDE9022304B0404261EB4101704760
:10065000524263EB43030AF009FBDDF804E0DDE9F5
:10066000022304B0524263EB43037047704700BF5C
:100670000348044B834202D0034B03B11847704731
:100680000C0000200C000020000000000548064B74
:100690001B1AD90F01EBA301491002D0034B03B180
:1006A000184770470C0000200C00002000000000DC
:1006B00010B5064C237843B9FFF7DAFF044B13B1AA
:1006C0000448AFF300800123237010BD1000002008
:1006D0000000000060AF000808B5054B1BB10549DC
:1006E0000548AFF30080BDE80840FFF7CFBF00BF6B
:1006F000000000001400002060AF00080346024420
:10070000934200D1704703F8011BF9E770B500264A
:100710000C4D0D4B5B1B9C10A64209D100260AF024
:100720001FFC0A4D0A4B5B1B9C10A64205D170BDF5
:1007300055F8043B98470136EEE755F8043B9847D7
:100740000136F2E770B0000870B0000870B0000821
:1007500074B0000880B400AF00BFBD4680BC7047D5
:1007600080B582B000AF78607B68002B01D1012397
:1007700041E07B6893F83D30DBB2002B06D17B680B
:10078000002283F83C20786804F09CFF7B680222FA
:1007900083F83D207B681A687B680433194610464D
:1007A00000F0DEFC7B68012283F846207B68012292
:1007B00083F83E207B68012283F83F207B6801227A
:1007C00083F840207B68012283F841207B68012266
:1007D00083F842207B68012283F843207B68012252
:1007E00083F844207B68012283F845207B6801223E
:1007F00083F83D20002318460837BD4680BD80B5EC
:1008000082B000AF78607B68002B01D1012341E00A
:100810007B6893F83D30DBB2002B06D17B68002269
:1008200083F83C20786800F039F87B68022283F86E
:100830003D207B681A687B6804331946104600F037
:100840008FFC7B68012283F846207B68012283F8B5
:100850003E207B68012283F83F207B68012283F8D9
:1008600040207B68012283F841207B68012283F8C5
:1008700042207B68012283F843207B68012283F8B1
:1008800044207B68012283F845207B68012283F89D
:100890003D20002318460837BD4680BD80B483B094
:1008A00000AF786000BF0C37BD4680BC70470000C9
:1008B00080B584B000AF786039603B68002B09D107
:1008C0007B6893F83E30DBB2012B14BF0123002379
:1008D000DBB222E03B68042B09D17B6893F83F3000
:1008E000DBB2012B14BF01230023DBB215E03B6810
:1008F000082B09D17B6893F84030DBB2012B14BF81
:1009000001230023DBB208E07B6893F84130DBB2BF
:10091000012B14BF01230023DBB2002B01D00123E4
:100920005EE03B68002B04D17B68022283F83E2006
:1009300013E03B68042B04D17B68022283F83F203C
:100940000BE03B68082B04D17B68022283F840202F
:1009500003E07B68022283F841207B681B68012248
:100960003968184600F088FE7B681B681E4A93426F
:1009700007D17B681B685A6C7B681B6842F4004295
:100980005A647B681B68184A93420ED07B681B68C8
:10099000B3F1804F09D07B681B68144A934204D09E
:1009A0007B681B68124A934211D17B681B689B6865
:1009B00003F00703FB60FB68062B10D07B681B6805
:1009C0001A687B681B6842F001021A6007E07B68C6
:1009D0001B681A687B681B6842F001021A600023DA
:1009E00018461037BD4680BD002C01400004004071
:1009F0000008004080B582B000AF786039607B6845
:100A00001B6800223968184600F036FE7B681B68B8
:100A1000294A934217D17B681B681A6A41F2111365
:100A20001340002B0FD17B681B681A6A40F24443C5
:100A30001340002B07D17B681B685A6C7B681B68CE
:100A400022F400425A647B681B681A6A41F211134F
:100A50001340002B0FD17B681B681A6A40F2444395
:100A60001340002B07D17B681B681A687B681B68E2
:100A700022F001021A603B68002B04D17B6801223E
:100A800083F83E2013E03B68042B04D17B680122ED
:100A900083F83F200BE03B68082B04D17B680122E0
:100AA00083F8402003E07B68012283F84120002383
:100AB00018460837BD4680BD002C014080B586B081
:100AC00000AF786039607B68002B01D1012393E08F
:100AD0007B6893F83D30DBB2002B06D17B680022A7
:100AE00083F83C20786804F055FD7B68022283F887
:100AF0003D207B681B689B687A68126823F48043FA
:100B000023F0070393607B681A687B6804331946F7
:100B1000104600F025FB7B681B689B687B617B6847
:100B20001B689B693B617B681B681B6AFB603B68B9
:100B30001B687A6913437B613B6923F4407323F09C
:100B400003033B613B689A683B689B691B02134344
:100B50003A6913433B613B6923F4406323F00C0380
:100B60003B613B6923F4704323F0F0033B613B6836
:100B7000DA683B68DB691B0213433A6913433B6144
:100B80003B681B691A013B681B6A1B0313433A69E4
:100B900013433B61FB6823F02203FB603B685A6808
:100BA0003B685B691B011343FA681343FB607B6876
:100BB0001B687A699A607B681B683A699A617B68EE
:100BC0001B68FA681A627B68012283F846207B68FA
:100BD000012283F83E207B68012283F83F207B6856
:100BE000012283F842207B68012283F843207B683E
:100BF000012283F83D20002318461837BD4680BDEA
:100C000080B584B000AF786039607B6893F83E307F
:100C1000FB737B6893F83F30BB737B6893F842307B
:100C20007B737B6893F843303B733B68002B10D198
:100C3000FB7B012B02D17B7B012B01D0012369E0DF
:100C40007B68022283F83E207B68022283F84220E0
:100C500031E03B68042B10D1BB7B012B02D13B7BE5
:100C6000012B01D0012355E07B68022283F83F204D
:100C70007B68022283F843201DE0FB7B012B08D117
:100C8000BB7B012B05D17B7B012B02D13B7B012B55
:100C900001D001233EE07B68022283F83E207B687E
:100CA000022283F83F207B68022283F842207B687F
:100CB000022283F843203B68002B03D03B68042BBF
:100CC00008D00FE07B681B6801220021184600F065
:100CD000D3FC16E07B681B6801220421184600F053
:100CE000CBFC0EE07B681B6801220021184600F057
:100CF000C3FC7B681B6801220421184600F0BCFC81
:100D000000BF7B681B681A687B681B6842F00102A1
:100D10001A60002318461037BD4680BD80B582B0EA
:100D200000AF786039603B68002B03D03B68042B30
:100D300008D00FE07B681B6800220021184600F0F5
:100D40009BFC16E07B681B6800220421184600F01B
:100D500093FC0EE07B681B6800220021184600F01F
:100D60008BFC7B681B6800220421184600F084FC81
:100D700000BF7B681B681A6A41F211131340002BF5
:100D80000FD17B681B681A6A40F244431340002B62
:100D900007D17B681B681A687B681B6822F0010218
:100DA0001A603B68002B02D03B68042B38D13B68AB
:100DB000002B04D17B68012283F83E2013E03B68BE
:100DC000042B04D17B68012283F83F200BE03B68B1
:100DD000082B04D17B68012283F8402003E07B6864
:100DE000012283F841203B68002B04D17B6801225B
:100DF00083F8422024E03B68042B04D17B68012265
:100E000083F843201CE03B68082B04D17B68012257
:100E100083F8442014E07B68012283F845200FE02A
:100E20007B68012283F83E207B68012283F83F2003
:100E30007B68012283F842207B68012283F84320EB
:100E4000002318460837BD4680BD000080B586B037
:100E500000AFF860B9607A600023FB75FB6893F817
:100E60003C30012B01D10223AEE0FB68012283F864
:100E70003C207B680C2B00F29F8001A252F823F0EB
:100E8000B50E0008B90F0008B90F0008B90F000827
:100E9000F50E0008B90F0008B90F0008B90F0008D7
:100EA000370F0008B90F0008B90F0008B90F000884
:100EB000770F0008FB681B68B968184600F0BEF998
:100EC000FB681B689A69FB681B6842F008029A611C
:100ED000FB681B689A69FB681B6822F004029A6130
:100EE000FB681B689969BB681A69FB681B680A4341
:100EF0009A6164E0FB681B68B968184600F004FA60
:100F0000FB681B689A69FB681B6842F400629A617F
:100F1000FB681B689A69FB681B6822F480629A610F
:100F2000FB681B689969BB681B691A02FB681B6830
:100F30000A439A6143E0FB681B68B968184600F0F1
:100F40004DFAFB681B68DA69FB681B6842F008020F
:100F5000DA61FB681B68DA69FB681B6822F004022F
:100F6000DA61FB681B68D969BB681A69FB681B6892
:100F70000A43DA6123E0FB681B68B968184600F091
:100F800097FAFB681B68DA69FB681B6842F4006229
:100F9000DA61FB681B68DA69FB681B6822F480620F
:100FA000DA61FB681B68D969BB681B691A02FB68B8
:100FB0001B680A43DA6102E00123FB7500BFFB688E
:100FC000002283F83C20FB7D18461837BD4680BDC3
:100FD00080B584B000AF786039600023FB737B6814
:100FE00093F83C30012B01D10223B4E07B6801224D
:100FF00083F83C207B68022283F83D207B681B68D5
:101000009B68BB60BB6823F07703BB60BB6823F4BD
:101010007F43BB607B681B68BA689A603B681B684B
:10102000B3F5005F3ED0B3F5005F00F28780B3F503
:10103000805F00F08680B3F5805F7FD8702B1AD078
:10104000702B7BD8602B50D0602B77D8502B3CD0A6
:10105000502B73D8402B58D0402B6FD8302B64D0F6
:10106000302B6BD8202B60D0202B67D8002B5CD086
:10107000102B5AD062E07B6818683B6899683B681F
:101080005A683B68DB6800F0D8FA7B681B689B688D
:10109000BB60BB6843F07703BB607B681B68BA68C2
:1010A0009A604FE07B6818683B6899683B685A68AB
:1010B0003B68DB6800F0C1FA7B681B689A687B6854
:1010C0001B6842F480429A603CE07B6818683B6889
:1010D00059683B68DB681A4600F038FA7B681B6881
:1010E0005021184600F08FFA2CE07B6818683B68A6
:1010F00059683B68DB681A4600F056FA7B681B6843
:101100006021184600F07FFA1CE07B6818683B6895
:1011100059683B68DB681A4600F018FA7B681B6860
:101120004021184600F06FFA0CE07B681A683B68B3
:101130001B681946104600F066FA03E00123FB73B2
:1011400000E000BF7B68012283F83D207B6800221D
:1011500083F83C20FB7B18461037BD4680BD00005D
:1011600080B485B000AF786039607B681B68FB6035
:101170007B682F4A93420BD07B68B3F1804F07D036
:101180007B682C4A934203D07B682B4A934208D158
:10119000FB6823F07003FB603B685B68FA681343ED
:1011A000FB607B68224A93420BD07B68B3F1804F8F
:1011B00007D07B681F4A934203D07B681E4A934244
:1011C00008D1FB6823F44073FB603B68DB68FA6876
:1011D0001343FB60FB6823F080023B685B691343A9
:1011E000FB607B68FA681A603B689A687B68DA6221
:1011F0003B681A687B689A627B680D4A934203D108
:101200003B681A697B681A637B6801225A617B68B4
:101210001B6903F00103002B05D07B681B6923F0D9
:1012200001027B681A6100BF1437BD4680BC70475D
:10123000002C0140000400400008004080B487B04A
:1012400000AF786039607B681B6A7B617B681B6AD2
:1012500023F001027B681A627B685B683B617B68F4
:101260009B69FB60FB6823F07003FB60FB6823F065
:101270000303FB603B681B68FA681343FB607B69F0
:1012800023F002037B613B689B687A6913437B61AF
:101290007B681C4A93420CD17B6923F008037B6175
:1012A0003B68DB687A6913437B617B6923F0040345
:1012B0007B617B68134A934211D13B6923F48073AD
:1012C0003B613B6923F400733B613B685B693A69AE
:1012D00013433B613B689B693A6913433B617B68FD
:1012E0003A695A607B68FA689A613B685A687B6819
:1012F0005A637B687A691A6200BF1C37BD4680BC9E
:10130000704700BF002C014080B487B000AF786008
:1013100039607B681B6A7B617B681B6A23F0100263
:101320007B681A627B685B683B617B689B69FB60DA
:10133000FB6823F4E043FB60FB6823F44073FB602D
:101340003B681B681B02FA681343FB607B6923F050
:1013500020037B613B689B681B017A6913437B61B7
:101360007B681D4A93420DD17B6923F080037B612A
:101370003B68DB681B017A6913437B617B6923F05F
:1013800040037B617B68144A934213D13B6923F489
:1013900080633B613B6923F400633B613B685B69AD
:1013A0009B003A6913433B613B689B699B003A6928
:1013B00013433B617B683A695A607B68FA689A61BB
:1013C0003B685A687B689A637B687A691A6200BFD7
:1013D0001C37BD4680BC7047002C014080B487B0EC
:1013E00000AF786039607B681B6A7B617B681B6A31
:1013F00023F480727B681A627B685B683B617B6860
:10140000DB69FB60FB6823F07003FB60FB6823F083
:101410000303FB603B681B68FA681343FB607B694E
:1014200023F400737B613B689B681B027A6913435A
:101430007B617B681D4A93420DD17B6923F4006375
:101440007B613B68DB681B027A6913437B617B69C4
:1014500023F480637B617B68144A934213D13B6918
:1014600023F480533B613B6923F400533B613B68A9
:101470005B691B013A6913433B613B689B691B0134
:101480003A6913433B617B683A695A607B68FA6842
:10149000DA613B685A687B68DA637B687A691A624A
:1014A00000BF1C37BD4680BC704700BF002C014008
:1014B00080B487B000AF786039607B681B6A3B619D
:1014C0007B681B6A23F480527B681A627B685B68C6
:1014D0007B617B68DB69FB60FB6823F4E043FB60B6
:1014E000FB6823F44073FB603B681B681B02FA68CF
:1014F0001343FB603B6923F400533B613B689B68EB
:101500001B033A6913433B617B680F4A934209D13D
:101510007B6923F480437B613B685B699B017A694B
:1015200013437B617B687A695A607B68FA68DA6189
:101530003B685A687B681A647B683A691A6200BF24
:101540001C37BD4680BC7047002C014080B487B07A
:1015500000AFF860B9607A60FB681B6A7B61FB686A
:101560001B6A23F00102FB681A62FB689B693B61FE
:101570003B6923F0F0033B617B681B013A6913432D
:101580003B617B6923F00A037B617A69BB68134383
:101590007B61FB683A699A61FB687A691A6200BFED
:1015A0001C37BD4680BC704780B487B000AFF86080
:1015B000B9607A60FB681B6A7B61FB681B6A23F079
:1015C0001002FB681A62FB689B693B613B6923F46C
:1015D00070433B617B681B033A6913433B617B6942
:1015E00023F0A0037B61BB681B017A6913437B6115
:1015F000FB683A699A61FB687A691A6200BF1C3716
:10160000BD4680BC704780B485B000AF786039605B
:101610007B689B68FB60FB6823F07003FB603A68A3
:10162000FB68134343F00703FB607B68FA689A602A
:1016300000BF1437BD4680BC704780B487B000AF90
:10164000F860B9607A603B60FB689B687B617B698E
:1016500023F47F437B613B681A027B681A43BB68B3
:1016600013437A6913437B61FB687A699A6000BF10
:101670001C37BD4680BC704780B487B000AFF860AF
:10168000B9607A60BB6803F01F03012202FA03F31A
:101690007B61FB681A6A7B69DB431A40FB681A624C
:1016A000FB681A6ABB6803F01F03796801FA03F349
:1016B0001A43FB681A6200BF1C37BD4680BC7047E6
:1016C00080B485B000AF786039607B6893F83C30B7
:1016D000012B01D1022346E07B68012283F83C20E4
:1016E0007B68022283F83D207B681B685B68FB6097
:1016F0007B681B689B68BB60FB6823F07003FB6022
:101700003B681B68FA681343FB607B681B68FA68D8
:101710005A607B681B68164A93420ED07B681B6830
:10172000B3F1804F09D07B681B68124A934204D002
:101730007B681B68104A93420CD1BB6823F080037E
:10174000BB603B685B68BA681343BB607B681B681F
:10175000BA689A607B68012283F83D207B6800228A
:1017600083F83C20002318461437BD4680BC7047E0
:10177000002C0140000400400008004080B500AF8C
:10178000084B1B68074A43F010031360032002F064
:10179000A3FE0F2000F008F804F0ACF9002318466F
:1017A00080BD00BF0020024080B582B000AF7860ED
:1017B000124B1A68124B1B7819464FF47A73B3FB1D
:1017C000F1F3B2FBF3F3184602F0BBFE0346002B25
:1017D00001D001230EE07B680F2B0AD80022796824
:1017E0004FF0FF3002F083FE064A7B68136000234F
:1017F00000E0012318460837BD4680BD00000020E8
:10180000080000200400002080B400AF054B1B78C6
:101810001A46054B1B681344034A136000BFBD46BC
:1018200080BC7047080000202C00002080B400AF6E
:10183000024B1B681846BD4680BC70472C00002038
:1018400080B586B000AF78607B68002B01D10123A2
:1018500072E27B681B6803F00103002B00F08780B5
:10186000924B5B6803F00C03042B0CD08F4B5B682E
:1018700003F00C03082B12D18C4B5B6803F480330C
:10188000B3F5803F0BD1894B1B6803F40033002B69
:101890006CD07B685B68002B68D101234CE27B68CD
:1018A0005B68B3F5803F06D1804B1B687F4A43F4E9
:1018B000803313602EE07B685B68002B0CD17B4B80
:1018C0001B687A4A23F480331360784B1B68774A8D
:1018D00023F4802313601DE07B685B68B3F5A02FC1
:1018E0000CD1724B1B68714A43F4802313606F4B19
:1018F0001B686E4A43F4803313600BE06B4B1B682C
:101900006A4A23F480331360684B1B68674A23F4E8
:10191000802313607B685B68002B13D0FFF786FF82
:10192000386108E0FFF782FF02463B69D31A642B57
:1019300001D9032300E25D4B1B6803F40033002B45
:10194000F0D014E0FFF772FF386108E0FFF76EFF98
:1019500002463B69D31A642B01D90323ECE1534BB4
:101960001B6803F40033002BF0D100E000BF7B685C
:101970001B6803F00203002B63D04C4B5B6803F041
:101980000C03002B0BD0494B5B6803F00C03082BB6
:101990001CD1464B5B6803F48033002B16D1434BBC
:1019A0001B6803F00203002B05D07B681B69012B29
:1019B00001D00123C0E13D4B1B6823F0F8027B6896
:1019C0005B69DB00394913430B603AE07B681B69B4
:1019D000002B20D0364B01221A60FFF727FF386119
:1019E00008E0FFF723FF02463B69D31A022B01D917
:1019F0000323A1E12D4B1B6803F00203002BF0D061
:101A00002A4B1B6823F0F8027B685B69DB002749DF
:101A100013430B6015E0264B00221A60FFF706FF08
:101A2000386108E0FFF702FF02463B69D31A022B38
:101A300001D9032380E11D4B1B6803F00203002B37
:101A4000F0D17B681B6803F00803002B3AD07B6859
:101A50009B69002B19D0174B01221A60FFF7E6FE95
:101A6000386108E0FFF7E2FE02463B69D31A022B19
:101A700001D9032360E10D4B5B6A03F00203002BE5
:101A8000F0D0012000F0CEFA1CE00A4B00221A60D0
:101A9000FFF7CCFE38610FE0FFF7C8FE02463B6956
:101AA000D31A022B08D9032346E100BF00100240DD
:101AB0000000424280044242924B5B6A03F0020300
:101AC000002BE9D17B681B6803F00403002B00F0B6
:101AD000A6800023FB758B4BDB6903F08053002B42
:101AE0000DD1884BDB69874A43F08053D361854B26
:101AF000DB6903F08053BB60BB680123FB75824B3D
:101B00001B6803F48073002B18D17F4B1B687E4A3F
:101B100043F480731360FFF789FE386108E0FFF734
:101B200085FE02463B69D31A642B01D9032303E1E6
:101B3000754B1B6803F48073002BF0D07B68DB6867
:101B4000012B06D16F4B1B6A6E4A43F001031362EF
:101B50002DE07B68DB68002B0CD16A4B1B6A694A5D
:101B600023F001031362674B1B6A664A23F00403E8
:101B700013621CE07B68DB68052B0CD1614B1B6A90
:101B8000604A43F0040313625E4B1B6A5D4A43F0F4
:101B9000010313620BE05B4B1B6A5A4A23F00103FB
:101BA0001362584B1B6A574A23F0040313627B6885
:101BB000DB68002B15D0FFF739FE38610AE0FFF72C
:101BC00035FE02463B69D31A41F28832934201D96D
:101BD0000323B1E04B4B1B6A03F00203002BEED052
:101BE00014E0FFF723FE38610AE0FFF71FFE02460C
:101BF0003B69D31A41F28832934201D903239BE017
:101C0000404B1B6A03F00203002BEED1FB7D012B3E
:101C100005D13C4BDB693B4A23F08053D3617B68A1
:101C2000DB69002B00F08780364B5B6803F00C0308
:101C3000082B61D07B68DB69022B46D1334B002235
:101C40001A60FFF7F3FD386108E0FFF7EFFD024689
:101C50003B69D31A022B01D903236DE0294B1B6882
:101C600003F00073002BF0D17B681B6AB3F5803F53
:101C700008D1244B5B6823F400327B689B682149C0
:101C800013434B601F4B5B6823F474127B68196A23
:101C90007B685B6A0B431B4913434B601B4B012260
:101CA0001A60FFF7C3FD386108E0FFF7BFFD024689
:101CB0003B69D31A022B01D903233DE0114B1B686A
:101CC00003F00073002BF0D035E0104B00221A60B7
:101CD000FFF7ACFD386108E0FFF7A8FD02463B695D
:101CE000D31A022B01D9032326E0064B1B6803F00D
:101CF0000073002BF0D11EE07B68DB69012B07D15C
:101D0000012319E0001002400070004060004242D0
:101D10000B4B5B68FB60FB6803F480327B681B6ADB
:101D20009A4206D1FB6803F470127B685B6A9A42A0
:101D300001D0012300E0002318461837BD4680BDBE
:101D40000010024080B584B000AF786039607B68D5
:101D5000002B01D10123D0E06A4B1B6803F007037D
:101D60003A689A4210D9674B1B6823F0070265490D
:101D70003B6813430B60634B1B6803F007033A682F
:101D80009A4201D00123B8E07B681B6803F002038C
:101D9000002B20D07B681B6803F00403002B05D0C8
:101DA000594B5B68584A43F4E06353607B681B6897
:101DB00003F00803002B05D0534B5B68524A43F4F1
:101DC00060535360504B5B6823F0F0027B689B6864
:101DD0004D4913434B607B681B6803F00103002BE4
:101DE00040D07B685B68012B07D1474B1B6803F42D
:101DF0000033002B15D101237FE07B685B68022B49
:101E000007D1414B1B6803F00073002B09D101235C
:101E100073E03D4B1B6803F00203002B01D101234B
:101E20006BE0394B5B6823F003027B685B683649E3
:101E300013434B60FFF7FAFCF8600AE0FFF7F6FC8B
:101E40000246FB68D31A41F28832934201D9032338
:101E500053E02D4B5B6803F00C027B685B689B00D2
:101E60009A42EBD1274B1B6803F007033A689A426A
:101E700010D2244B1B6823F0070222493B6813430E
:101E80000B60204B1B6803F007033A689A4201D0AD
:101E9000012332E07B681B6803F00403002B08D0A9
:101EA000194B5B6823F4E0627B68DB6816491343D7
:101EB0004B607B681B6803F00803002B09D0124BB2
:101EC0005B6823F460527B681B69DB000E49134397
:101ED0004B6000F021F802460B4B5B681B0903F0D6
:101EE0000F030A49CB5C22FA03F3094A1360094B3A
:101EF0001B681846FFF758FC002318461037BD46EC
:101F000080BD00BF002002400010024014B0000855
:101F1000000000200400002080B487B000AF002340
:101F2000FB600023BB6000237B6100237B600023F8
:101F30003B611E4B5B68FB60FB6803F00C03042BEA
:101F400002D0082B03D027E0194B3B6127E0FB6848
:101F50009B0C03F00F03174AD35C7B60FB6803F410
:101F60008033002B10D0114B5B685B0C03F0010336
:101F7000114AD35CBB607B680D4A03FB02F2BB686D
:101F8000B2FBF3F37B6104E07B680C4A02FB03F3D2
:101F90007B617B693B6102E0054B3B6100BF3B69B4
:101FA00018461C37BD4680BC704700BF0010024079
:101FB00000127A002CB000083CB0000800093D0077
:101FC00080B400AF024B1B681846BD4680BC70470A
:101FD0000000002080B500AFFFF7F2FF0246054B7E
:101FE0005B681B0A03F007030349CB5C22FA03F387
:101FF000184680BD0010024024B0000880B500AF34
:10200000FFF7DEFF0246054B5B68DB0A03F00703C0
:102010000349CB5C22FA03F3184680BD001002404E
:1020200024B0000880B485B000AF78600A4B1B680C
:102030000A4AA2FB03235B0A7A6802FB03F3FB60F4
:1020400000BFFB685A1EFA60002BF9D100BF00BF29
:102050001437BD4680BC704700000020D34D62108D
:1020600080B48BB000AF7860396000237B620023BE
:102070003B6269E101227B6A02FA03F3FB613B6880
:102080001B68FA691340BB61BA69FB699A4240F068
:1020900058813B685B689A4A93425ED0984A934263
:1020A00075D8984A934258D0964A93426FD8964A28
:1020B000934252D0944A934269D8944A93424CD066
:1020C000924A934263D8924A934246D0904A9342AE
:1020D0005DD8122B2AD8122B59D801A252F823F01E
:1020E0005B210008352100084721000889210008EC
:1020F0008F2100088F2100088F2100088F21000800
:102100008F2100088F2100088F2100088F210008EF
:102110008F2100088F2100088F2100088F210008DF
:102120008F2100083D21000851210008794A93427F
:1021300013D02CE03B68DB683B6229E03B68DB683E
:1021400004333B6224E03B68DB6808333B621FE0FA
:102150003B68DB680C333B621AE03B689B68002BF2
:1021600002D104233B6213E03B689B68012B05D13D
:1021700008233B627B68FA691A6109E008233B6225
:102180007B68FA695A6103E000233B6200E000BF0C
:10219000BB69FF2B01D87B6801E07B6804337B615E
:1021A000BB69FF2B02D87B6A9B0002E07B6A083B7D
:1021B0009B003B617B691A680F213B6901FA03F3BD
:1021C000DB431A40396A3B6901FA03F31A437B691E
:1021D0001A603B685B6803F08053002B00F0B1800D
:1021E0004D4B9B694C4A43F0010393614A4B9B69F9
:1021F00003F00103BB60BB68484A7B6A9B0802335B
:1022000052F82330FB607B6A03F003039B000F222C
:1022100002FA03F3DB43FA681340FB607B68404A31
:10222000934213D07B683F4A93420DD07B683E4A6D
:10223000934207D07B683D4A934201D1032306E0D5
:10224000042304E0022302E0012300E000237A6A71
:1022500002F0030292009340FA681343FB602F4997
:102260007B6A9B080233FA6841F823203B685B686D
:1022700003F48013002B06D02D4B9A682C49BB69C0
:1022800013438B6006E02A4B9A68BB69DB432849FD
:1022900013408B603B685B6803F40013002B06D08F
:1022A000234BDA682249BB691343CB6006E0204B1D
:1022B000DA68BB69DB431E491340CB603B685B684F
:1022C00003F40033002B06D0194B5A681849BB6938
:1022D00013434B6006E0164B5A68BB69DB43144955
:1022E00013404B603B685B6803F48033002B21D0C4
:1022F0000F4B1A680E49BB6913430B6021E000BF06
:1023000000003210000031100000221000002110E7
:1023100000001210000011100010024000000140E7
:1023200000080140000C0140001001400014014071
:10233000000401400B4B1A68BB69DB430949134099
:102340000B607B6A01337B623B681A687B6A22FA06
:1023500003F3002B7FF48EAE00BF00BF2C37BD46C9
:1023600080BC70470004014080B483B000AF786047
:102370000B467B8013467B707B78002B03D07A88DA
:102380007B681A6103E07B881A047B681A6100BFCE
:102390000C37BD4680BC704780B485B000AF786014
:1023A0000B467B807B68DB68FB607A88FB681340A8
:1023B0001A04FB68D9437B880B401A437B681A6177
:1023C00000BF1437BD4680BC7047000080B584B0A4
:1023D00000AF78607B68002B01D101232BE17B6883
:1023E00093F83D30DBB2002B06D17B68002283F8E6
:1023F0003C20786802F036FF7B68242283F83D2079
:102400007B681B681A687B681B6822F001021A60EF
:102410007B681B681A687B681B6842F400421A607C
:102420007B681B681A687B681B6822F400421A608C
:10243000FFF7D0FDF8607B685B68814A934207D85C
:10244000FB68804A934294BF01230023DBB206E07D
:10245000FB687D4A934294BF01230023DBB2002B2B
:1024600001D00123E7E0FB68784AA2FB03239B0C21
:10247000BB607B681B685B6823F03F017B681B685F
:10248000BA680A435A607B681B681B6A23F03F01E5
:102490007B685B686A4A934202D8BB68013309E0F3
:1024A000BB684FF4967202FB03F3694AA2FB032355
:1024B0009B0901337A6812680B4313627B681B68BF
:1024C000DB6923F44F4222F0FF027B685B685C49C2
:1024D0008B4219D8FB68591E7B685B685B00B1FBB7
:1024E000F3F3591C40F6FC730B40002B0AD0FB6839
:1024F000591E7B685B685B00B1FBF3F30133C3F3E8
:102500000B0351E004234FE07B689B68002B11D143
:10251000FB68581E7B6859680B465B000B44B0FB98
:10252000F3F30133C3F30B03002B0CBF0123002390
:10253000DBB212E0FB68581E7B6859680B469B00B3
:102540000B4499000B44B0FBF3F30133C3F30B03CB
:10255000002B0CBF01230023DBB2002B01D0012391
:1025600022E07B689B68002B0ED1FB68581E7B68BD
:1025700059680B465B000B44B0FBF3F30133C3F324
:102580000B0343F400430FE0FB68581E7B68596857
:102590000B469B000B4499000B44B0FBF3F3013353
:1025A000C3F30B0343F44043796809681343CB61D9
:1025B0007B681B681B6823F0C0017B68DA697B6855
:1025C0001B6A1A437B681B680A431A607B681B6896
:1025D0009B6823F4034323F0FF037A6811697A6848
:1025E000D26811437A6812680B4393607B681B685A
:1025F000DB6823F0FF017B685A697B689B691A439B
:102600007B681B680A43DA607B681B681A687B6812
:102610001B6842F001021A607B6800221A647B6822
:10262000202283F83D207B6800221A637B68002209
:1026300083F83E20002318461037BD4680BD00BFFA
:10264000A08601007F841E00FF083D0083DE1B433F
:10265000D34D621080B483B000AF78607B681B6894
:102660005B6903F08003802B03D17B681B68002229
:102670001A6100BF0C37BD4680BC704780B487B07C
:1026800000AFF860084611461A4603467B810B46A8
:102690003B811346FB8000237B61FB6893F83D3050
:1026A000DBB2202B40F096804D4B1B68DB084D4A77
:1026B000A2FB03231A0A13469B0013449A001344F7
:1026C0007B617B69013B7B617B69002B12D1FB68DD
:1026D00000221A63FB68202283F83D20FB68002259
:1026E00083F83E20FB681B6C43F02002FB681A64F1
:1026F000022370E0FB681B689B6903F00203022B56
:10270000DFD0FB6893F83C30012B01D1022362E05B
:10271000FB68012283F83C20FB681B681B6803F000
:102720000103012B07D0FB681B681A68FB681B6854
:1027300042F001021A60FB681B681A68FB681B689C
:1027400022F400621A60FB68222283F83D20FB68B5
:10275000402283F83E20FB6800221A64FB683A6A34
:102760005A62FB68BA8C5A85FB685B8D9AB2FB682B
:102770001A85FB681C4ADA627A89FB685A643A89CE
:10278000FB689A64FA88FB68DA64FB6800221A65C1
:10279000FB681B681A68FB681B6842F480621A6059
:1027A000FB681B681A68FB681B6842F480721A6039
:1027B000FB68002283F83C20FB681B8D002B07D0B0
:1027C000FB681B685A68FB681B6842F4E0625A6049
:1027D000002300E0022318461C37BD4680BC70472A
:1027E0000000002089B5F8140000FFFF80B588B014
:1027F00000AF78600023BB617B681B685B687B610E
:102800007B68DB6A3B617B6893F83E30FB737B68D7
:1028100093F83D30BB73FB7B102B03D0FB7B402B2D
:1028200040F0C1807B681B689B69BB617B681B684B
:102830005B69FB61FB6903F00103002B0DD13B6970
:10284000B3F52A0F03D03B69B3F12A4F01D101231D
:1028500000E00023012B00F03281FB6903F001034B
:10286000002B0CD07B695B0A03F00103002B06D020
:10287000786801F089FC786800F087FD92E0FB69D8
:10288000DB0803F00103002B09D07B695B0A03F02E
:102890000103002B03D0786800F0FCFD82E0FB69A7
:1028A0005B0803F00103002B09D07B695B0A03F08E
:1028B0000103002B03D0786800F015FE72E0BB69BD
:1028C0009B0803F00103002B3BD07B681B685B680F
:1028D00003F40063B3F5006F00F0F380FB69DB09DC
:1028E00003F00103002B0FD07B699B0A03F0010367
:1028F000002B09D0FB699B0803F00103002B03D1D7
:10290000786800F0DFF94DE0FB699B0803F00103F4
:10291000002B00F0D6807B695B0A03F00103002BDB
:1029200000F0CF80BB7B212B03D1786800F066FAE2
:10293000C7E0FB7B402B40F0C480786800F0D4FAFD
:10294000BFE07B681B685B6803F40063B3F5006F4E
:1029500000F0B780FB699B0903F00103002B0FD047
:102960007B699B0A03F00103002B09D0FB699B08DC
:1029700003F00103002B03D1786800F04DFB11E058
:10298000FB699B0803F00103002B00F09A807B6930
:102990005B0A03F00103002B00F09380786800F0DD
:1029A00003FC8EE08DE07B681B6C002B04D07B6801
:1029B0001B685B69FB6107E07B681B689B69BB6107
:1029C0007B681B685B69FB61FB695B0803F00103C3
:1029D000002B12D07B695B0A03F00103002B0CD0A3
:1029E0007B681B6C002B03D07B681B689B69BB61F9
:1029F000B969786800F0CEFF66E0FB691B0903F057
:102A00000103002B09D07B695B0A03F00103002B53
:102A100003D0786801F008F856E0BB7B212B02D088
:102A2000BB7B292B25D1FB69DB0903F00103002BBC
:102A30000FD07B699B0A03F00103002B09D0FB69CF
:102A40009B0803F00103002B03D1786800F0E6FE39
:102A500039E0FB699B0803F00103002B33D07B694D
:102A60005B0A03F00103002B2DD0786800F013FF00
:102A700029E0FB699B0903F00103002B0FD07B6960
:102A80009B0A03F00103002B09D0FB699B0803F0AC
:102A90000103002B03D1786800F01DFF14E0FB69EF
:102AA0009B0803F00103002B0ED07B695B0A03F047
:102AB0000103002B08D0786800F04BFF04E000BF52
:102AC00002E000BF00E000BF2037BD4680BD80B5FA
:102AD0008AB000AF78607B681B685B693B627B688B
:102AE0001B685B68FB6100237B627B6893F83E3068
:102AF000FB763B6A1B0A03F00103002B16D0FB692F
:102B00001B0A03F00103002B10D07B6A43F0010382
:102B10007B627B681B686FF480725A617B681B68FC
:102B20001A687B681B6842F400421A603B6A5B0AC1
:102B300003F00103002B0ED0FB691B0A03F0010315
:102B4000002B08D07B6A43F002037B627B681B6822
:102B50006FF400725A613B6A9B0A03F00103002B79
:102B60003FD0FB691B0A03F00103002B39D0FB7E29
:102B7000BB767B685B8D9BB27B617B6893F83D3055
:102B8000FB747B681B6BFB60BB7E202B12D17B69C7
:102B9000002B0FD1FB7C212B08D0FB7C292B05D0EF
:102BA000FB7C282B06D1FB68212B03D1786801F030
:102BB0006BF816E07B681B686FF480625A617B6A71
:102BC00043F004037B62FB7E102B02D0FB7E402B84
:102BD00007D17B681B681A687B681B6842F4007227
:102BE0001A603B6ADB0A03F00103002B0ED0FB697D
:102BF0001B0A03F00103002B08D07B6A43F0080393
:102C00007B627B681B686FF400625A617B6A002BF1
:102C100008D07B681A6C7B6A1A437B681A647868F0
:102C200001F0A6F800BF2837BD4680BD80B483B050
:102C300000AF786000BF0C37BD4680BC704780B4E1
:102C400083B000AF786000BF0C37BD4680BC7047D2
:102C500080B483B000AF786000BF0C37BD4680BC45
:102C6000704780B483B000AF786000BF0C37BD46BA
:102C700080BC704780B483B000AF78600B46FB70B7
:102C800013463B8000BF0C37BD4680BC704780B404
:102C900083B000AF786000BF0C37BD4680BC704782
:102CA00080B483B000AF786000BF0C37BD4680BCF5
:102CB000704780B483B000AF786000BF0C37BD466A
:102CC00080BC704780B584B000AF78607B6893F8B3
:102CD0003D30FB737B6893F83E30BB737B68DB6AE7
:102CE000BB607B681B8D002B50D1FB7B212B4DD112
:102CF000BB68082B1DD0BB68202B1AD0BB6813F50E
:102D0000803F16D07B681B685A687B681B6822F47A
:102D1000E0625A607B6811221A637B68002283F8A4
:102D20003E207B68202283F83D207868FFF77EFFF5
:102D300060E07B681B685A687B681B6822F4E0626D
:102D40005A607B681B681A687B681B6842F40072D3
:102D50001A607B6800221A637B68202283F83D207A
:102D60007B6893F83E30DBB2402B07D17B680022B2
:102D700083F83E207868FFF793FF3BE07B680022F2
:102D800083F83E207868FFF751FF33E0FB7B212B6F
:102D900005D0BB7B402B2DD1FB7B222B2AD17B681E
:102DA0005B8D9BB2002B08D17B681B685A687B68DF
:102DB0001B6822F480625A601CE07B6893F83E3006
:102DC000DBB2402B03D1786800F08EF812E07B680C
:102DD0005B6A1A787B681B681A617B685B6A5A1C9D
:102DE0007B685A627B685B8D9BB2013B9AB27B68C1
:102DF0005A85FFE700BF1037BD4680BD80B584B05F
:102E000000AF78607B68DB6AFB607B6893F83D30DD
:102E1000DBB2212B64D17B685B8D9BB2002B12D07F
:102E20007B685B6A1A787B681B681A617B685B6ADF
:102E30005A1C7B685A627B685B8D9BB2013B9AB2DD
:102E40007B685A854CE0FB68082B1DD0FB68202B63
:102E50001AD0FB6813F5803F16D07B681B685A6850
:102E60007B681B6822F4E0625A607B6811221A6357
:102E70007B68002283F83E207B68202283F83D2077
:102E80007868FFF7D3FE2BE07B681B685A687B6885
:102E90001B6822F4E0625A607B681B681A687B68D2
:102EA0001B6842F400721A607B6800221A637B6818
:102EB000202283F83D207B6893F83E30DBB2402B24
:102EC00007D17B68002283F83E207868FFF7E8FE90
:102ED00006E07B68002283F83E207868FFF7A6FEB4
:102EE00000BF1037BD4680BD80B584B000AF7860AC
:102EF0007B6893F83D30FB737B681B6D002B1DD105
:102F00007B68DB6C012B0BD17B689B6CDAB27B6836
:102F10001B681A617B681B6D9A1C7B681A6577E0D9
:102F20007B689B6C9BB21B12DAB27B681B681A61D0
:102F30007B681B6D5A1C7B681A6569E07B681B6D9A
:102F4000012B0BD17B689B6CDAB27B681B681A6122
:102F50007B681B6D5A1C7B681A6559E07B681B6D8A
:102F6000022B52D1FB7B222B0DD17B681B681A6888
:102F70007B681B6842F480721A607B681B6D5A1C68
:102F80007B681A6544E07B685B8D9BB2002B15D093
:102F9000FB7B212B12D17B685B6A1A787B681B68EC
:102FA0001A617B685B6A5A1C7B685A627B685B8D1E
:102FB0009BB2013B9AB27B685A8529E07B685B8DA6
:102FC0009BB2002B24D1FB7B212B21D17B681B687A
:102FD0005A687B681B6822F4E0625A607B681B6851
:102FE0001A687B681B6842F400721A607B680022D2
:102FF0001A637B68202283F83D207B68002283F8D7
:103000003E207868FFF74CFE02E07868FFF722FB6D
:1030100000BF1037BD4680BD80B584B000AF78607A
:103020007B6893F83D30DBB2222B40F0B9807B689F
:10303000DB6AFB607B685B8D9BB2BB60BB68032B6C
:1030400021D97B681B681A697B685B6AD2B21A70E7
:103050007B685B6A5A1C7B685A627B685B8D9BB29B
:10306000013B9AB27B685A857B685B8D9BB2032BD0
:1030700040F096807B681B685A687B681B6822F466
:1030800080625A608CE07B68DB6A022B7FD0BB6871
:10309000012B02D0BB68002B79D1786801F042F88F
:1030A0000346002B4CD17B681B681A687B681B6841
:1030B00022F480621A607B681B685A687B681B6810
:1030C00022F4E0625A607B681B681A697B685B6A5D
:1030D000D2B21A707B685B6A5A1C7B685A627B6842
:1030E0005B8D9BB2013B9AB27B685A857B6820223C
:1030F00083F83D207B6893F83E30DBB2402B0AD149
:103100007B68002283F83E207B6800221A6378687F
:1031100005F02CF944E07B68002283F83E20FB6830
:10312000082B02D0FB68202B03D17B6800221A6396
:1031300002E07B6812221A637868FFF780FD2FE0B7
:103140007B681B685A687B681B6822F4E0625A60DF
:103150007B681B681A697B685B6AD2B21A707B68ED
:103160005B6A5A1C7B685A627B685B8D9BB2013B31
:103170009AB27B685A857B68202283F83D207B6861
:10318000002283F83E20786805F004F908E07B68A7
:103190001B685A687B681B6822F480625A60FFE7EC
:1031A00000BF1037BD4680BD80B584B000AF7860E9
:1031B0007B68DB6AFB607B685B8D9BB2042B1BD159
:1031C0007B681B685A687B681B6822F480625A60BF
:1031D0007B681B681A697B685B6AD2B21A707B686D
:1031E0005B6A5A1C7B685A627B685B8D9BB2013BB1
:1031F0009AB27B685A85C4E07B685B8D9BB2032BD7
:1032000029D17B681B685A687B681B6822F480623E
:103210005A60FB68042B0AD0FB68022B07D07B683E
:103220001B681A687B681B6822F480621A607B68DE
:103230001B681A697B685B6AD2B21A707B685B6A2A
:103240005A1C7B685A627B685B8D9BB2013B9AB2C9
:103250007B685A8595E07B685B8D9BB2022B7DD1A4
:10326000FB68012B02D0FB68102B08D17B681B6820
:103270001A687B681B6822F480621A6016E0FB689B
:10328000042B02D0FB68022B08D17B681B681A68EC
:103290007B681B6842F480621A6007E07B681B68E9
:1032A0001A687B681B6842F400721A607B681B68AE
:1032B0001A697B685B6AD2B21A707B685B6A5A1CB7
:1032C0007B685A627B685B8D9BB2013B9AB27B68DC
:1032D0005A857B681B681A697B685B6AD2B21A7070
:1032E0007B685B6A5A1C7B685A627B685B8D9BB209
:1032F000013B9AB27B685A857B681B685A687B6879
:103300001B6822F440725A607B68202283F83D20BB
:103310007B6893F83E30DBB2402B0AD17B680022F9
:1033200083F83E207B6800221A63786805F01EF857
:1033300027E07B68002283F83E20FB68082B02D040
:10334000FB68202B03D17B6800221A6302E07B68B4
:1033500012221A637868FFF772FC12E07B681B6820
:103360001A697B685B6AD2B21A707B685B6A5A1C06
:103370007B685A627B685B8D9BB2013B9AB27B682B
:103380005A8500BF1037BD4680BD80B483B000AF02
:1033900078607B6893F83E30DBB2402B17D17B68B6
:1033A0001B6D002B09D17B685B6CDBB21A467B6816
:1033B0001B6802F0FE021A6167E07B685B6CDBB29F
:1033C00043F00103DAB27B681B681A615DE07B6839
:1033D0001B69B3F5804F33D17B6893F83D30DBB286
:1033E000212B09D17B685B6CDBB21A467B681B68BA
:1033F00002F0FE021A6108E07B685B6CDBB243F00E
:103400000103DAB27B681B681A617B685B6B002B77
:1034100004D07B685B6B9B6A002B08D17B689B6B3D
:10342000002B32D07B689B6B9B6A002B2DD07B6876
:103430001B685A687B681B6842F400625A6024E08B
:103440007B681B6D002B0ED17B685B6C9BB2DB1124
:10345000DBB203F00603DBB263F00F03DAB27B6882
:103460001B681A6111E07B681B6D012B0DD17B6815
:103470005B6C9BB2DB11DBB203F00603DBB263F0E3
:103480000E03DAB27B681B681A6100BF0C37BD46B9
:1034900080BC704780B483B000AF78607B685B6CA1
:1034A000DAB27B681B681A617B685B6B002B04D007
:1034B0007B685B6B9B6A002B08D17B689B6B002B46
:1034C0000CD07B689B6B9B6A002B07D07B681B68CA
:1034D0005A687B681B6842F400625A6000BF0C3770
:1034E000BD4680BC704780B491B000AF78607B6807
:1034F00093F83E3087F83F307B68DB6ABB637B68BC
:103500001B6B7B637B6893F83D30DBB2222B40F072
:1035100074817B681B6D002B0FD197F83F30402BD7
:103520000BD100233B637B681B685B693B637B6853
:103530001B689B693B633B6B6BE17B681B6D002BDE
:103540001DD17B681B69B3F5404F18D10023FB6286
:103550007B681B685B69FB627B681B689B69FB621D
:10356000FB6A7B681B681A687B681B6842F4807280
:103570001A607B681B6D5A1C7B681A6549E17B6881
:103580005B8D9BB2002B13D10023BB627B681B6851
:103590005B69BB627B681B689B69BB62BB6A7B68BB
:1035A0001B681A687B681B6842F400721A6020E18D
:1035B0007B685B8D9BB2012B40F08A80BB6B13F55F
:1035C000803F37D17B681B681A687B681B6822F4D0
:1035D00080621A607B681B685B6803F40063B3F564
:1035E000006F13D17B681B681A687B681B6822F424
:1035F00080621A6000237B627B681B685B697B6268
:103600007B681B689B697B627B6AF2E000233B62FC
:103610007B681B685B693B627B681B689B693B62DC
:103620003B6A7B681B681A687B681B6842F40072FF
:103630001A60DEE0BB6B082B2ED0BB6B202B2BD08F
:103640007B6B122B02D1BB6B012B25D1BB6B042BE7
:103650000ED0BB6B022B0BD0BB6B102B08D07B6842
:103660001B681A687B681B6822F480621A6007E096
:103670007B681B681A687B681B6842F480621A606A
:103680000023FB617B681B685B69FB617B681B68CF
:103690009B69FB61FB69ACE07B681B681A687B680F
:1036A0001B6822F480621A600023BB617B681B6880
:1036B0005B69BB617B681B689B69BB61BB697B689D
:1036C0001B681A687B681B6842F400721A6090E0FD
:1036D0007B685B8D9BB2022B58D1BB6B042B21D036
:1036E000BB6B022B1ED0BB6B102B1BD07B681B68E7
:1036F0001A687B681B6842F400621A6000237B61D1
:103700007B681B685B697B617B681B689B697B616D
:103710007B697B681B681A687B681B6822F480627F
:103720001A6012E07B681B681A687B681B6842F4A9
:1037300080621A6000233B617B681B685B693B61A8
:103740007B681B689B693B613B697B681B685B68A6
:1037500003F40063B3F5006F4BD1BB6B13F5803FEF
:103760000BD0BB6B012B08D0BB6B082B05D0BB6B00
:10377000102B02D0BB6B202B3BD17B681B685A6897
:103780007B681B6842F480525A6032E07B681B6899
:103790001A687B681B6842F480621A607B681B6849
:1037A0005B6803F40063B3F5006F17D1BB6B13F5CF
:1037B000803F0BD0BB6B012B08D0BB6B082B05D017
:1037C000BB6B102B02D0BB6B202B07D17B681B6817
:1037D0005A687B681B6842F480525A600023FB6081
:1037E0007B681B685B69FB607B681B689B69FB608F
:1037F000FB687B6800221A650BE00023BB607B68D6
:103800001B685B69BB607B681B689B69BB60BB68AE
:10381000FFE700BF4437BD4680BC704780B584B029
:1038200000AF78607B6893F83D30FB737B685B8DFD
:103830009BB2002B2BD07B685B6A1A787B681B6875
:103840001A617B685B6A5A1C7B685A627B685B8D75
:103850009BB2013B9AB27B685A857B685B8D9BB2B9
:10386000002B14D1FB7B292B11D17B681B685A6874
:103870007B681B6822F480625A607B6821221A638D
:103880007B68282283F83D207868FFF7E1F900BFC4
:103890001037BD4680BD80B483B000AF78607B68D0
:1038A0005B8D9BB2002B11D07B685B6A1A787B68BA
:1038B0001B681A617B685B6A5A1C7B685A627B686A
:1038C0005B8D9BB2013B9AB27B685A8500BF0C3777
:1038D000BD4680BC704780B584B000AF78607B681F
:1038E00093F83D30FB737B685B8D9BB2002B2CD033
:1038F0007B681B681A697B685B6AD2B21A707B6846
:103900005B6A5A1C7B685A627B685B8D9BB2013B89
:103910009AB27B685A857B685B8D9BB2002B14D171
:10392000FB7B2A2B11D17B681B685A687B681B685C
:1039300022F480625A607B6822221A637B68282204
:1039400083F83D207868FFF78CF900BF1037BD463B
:1039500080BD80B483B000AF78607B685B8D9BB224
:10396000002B12D07B681B681A697B685B6AD2B235
:103970001A707B685B6A5A1C7B685A627B685B8D35
:103980009BB2013B9AB27B685A8500BF0C37BD469B
:1039900080BC704780B584B000AF78603960002388
:1039A000FB737B6893F83D30DBB203F02803282BD0
:1039B00027D17B681B685A687B681B6822F4806289
:1039C0005A603B689B0803F00103002B01D10123DF
:1039D000FB733B68DB0903F00103002B03D17B6819
:1039E000DB68BB8102E07B689B69BB817B6800224E
:1039F00083F83C20BA89FB7B19467868FFF73AF9CF
:103A00000EE00023BB607B681B685B69BB607B6862
:103A10001B689B69BB60BB687B68002283F83C2005
:103A200000BF1037BD4680BD80B584B000AF786060
:103A30007B6893F83D30FB737B681B685A687B6832
:103A40001B6822F4E0625A600023BB607B681B683D
:103A50005B69BB607B681B681A687B681B6842F007
:103A600001021A60BB687B681B681A687B681B6868
:103A700022F480621A607B681B685B6803F4006351
:103A8000B3F5006F72D1FB7B222B02D0FB7B2A2B7C
:103A900035D17B689B6B1B685B689AB27B685A85E3
:103AA0007B685B8D9BB2002B05D07B681B6C43F061
:103AB00004027B681A647B681B685A687B681B6811
:103AC00022F400625A607B689B6B184600F02AFC67
:103AD0000346012B49D07B689B6B694A5A637B681C
:103AE0009B6B184600F0A6FB0346002B3DD07B687D
:103AF0009B6B5B6B7A68926B1046984735E07B68EE
:103B00005B6B1B685B689AB27B685A857B685B8DD0
:103B10009BB2002B05D07B681B6C43F004027B68D2
:103B20001A647B681B685A687B681B6822F4006211
:103B30005A607B685B6B184600F0F4FB0346012B70
:103B400014D07B685B6B4E4A5A637B685B6B18468C
:103B500000F070FB0346002B08D07B685B6B5B6B4F
:103B60007A68526B1046984700E000BF7B685B8D17
:103B70009BB2002B3ED07B681B685B6903F004039B
:103B8000042B12D17B681B681A697B685B6AD2B20E
:103B90001A707B685B6A5A1C7B685A627B685B8D13
:103BA0009BB2013B9AB27B685A857B681B685B6954
:103BB00003F04003402B12D17B681B681A697B68B5
:103BC0005B6AD2B21A707B685B6A5A1C7B685A6265
:103BD0007B685B8D9BB2013B9AB27B685A857B68A0
:103BE0005B8D9BB2002B05D07B681B6C43F00402FD
:103BF0007B681A647B681B6C002B03D0786800F02C
:103C0000B7F839E0FB7B2A2B09D17B6800221A63C5
:103C10007B68282283F83D207868FFF722F87B68CC
:103C200093F83D30DBB2282B11D17B68154ADA625C
:103C30007B6800221A637B68202283F83D207B6822
:103C4000002283F83E207868FFF721F814E07B68B3
:103C50001B6B222B02D0FB7B222B0DD17B68002219
:103C60001A637B68202283F83D207B68002283F85A
:103C70003E207868FEF7F5FF00BF1037BD4680BDD7
:103C8000D53F00080000FFFF80B584B000AF78602A
:103C90007B6893F83D30FB737B68DB6ABB60BB6875
:103CA000082B02D0BB68202B29D1FB7B282B26D1E7
:103CB0007B682E4ADA627B681B685A687B681B68DF
:103CC00022F4E0625A607B681B686FF480625A617C
:103CD0007B681B681A687B681B6822F480621A6024
:103CE0007B6800221A637B68202283F83D207B6872
:103CF000002283F83E207868FEF7C9FF31E0FB7BA5
:103D0000212B29D17B68194ADA627B6821221A6348
:103D10007B68202283F83D207B68002283F83E20C8
:103D20007B681B685A687B681B6822F4E0625A60F3
:103D30007B681B686FF480625A617B681B681A6835
:103D40007B681B6822F480621A607868FEF782FC48
:103D50007868FEF77DFF04E07B681B686FF4806283
:103D60005A6100BF1037BD4680BD00BF0000FFFF95
:103D700080B584B000AF78607B6893F83D30FB730A
:103D80007B6893F83E30BB73BB7B102B02D0BB7BB0
:103D9000402B0AD1FB7B222B07D17B681B681A685A
:103DA0007B681B6822F400621A60FB7B03F0280327
:103DB000282B07D17B6800221A637B68282283F8AE
:103DC0003D2015E07B681B685B6803F40063B3F576
:103DD000006F0AD0FB7B602B07D07B68202283F822
:103DE0003D207B68002283F83E207B6800221A6316
:103DF0007B681B685B6803F40063B3F5006F62D1F6
:103E00007B681B685A687B681B6822F400625A60F2
:103E10007B685B6B93F82130DBB2012B20D07B6891
:103E20005B6B6A4A5A637B685B6B184600F002FA68
:103E30000346002B00F089807B681B681A687B684A
:103E40001B6822F001021A607B68202283F83D2063
:103E50007B685B6B5B6B7A68526B1046984774E0CB
:103E60007B689B6B594A5A637B689B6B184600F0D2
:103E7000E1F90346002B68D07B681B685B6903F09F
:103E80004003402B0BD17B681B681A697B685B6A17
:103E9000D2B21A707B685B6A5A1C7B685A627B6874
:103EA0001B681A687B681B6822F001021A607B6835
:103EB000202283F83D207B689B6B5B6B7A68926B5A
:103EC0001046984741E07B6893F83D30DBB2602BA9
:103ED00025D17B68202283F83D207B6800221A646C
:103EE0007B681B685B6903F04003402B0BD17B6848
:103EF0001B681A697B685B6AD2B21A707B685B6A5E
:103F00005A1C7B685A627B681B681A687B681B684E
:103F100022F001021A607868FEF7CBFE15E07B689C
:103F20001B685B6903F04003402B0BD17B681B6867
:103F30001A697B685B6AD2B21A707B685B6A5A1C2A
:103F40007B685A62786804F025FA7B681B6CBB605A
:103F5000BB6803F00103002B0ED1BB6803F0020322
:103F6000002B09D1BB6803F00403002B04D1BB680C
:103F700003F00803002B07D07B681B685A687B6836
:103F80001B6822F4E0625A607B6893F83D30FB7353
:103F90007B681B6C03F00403042B13D1FB7B282BE1
:103FA00010D17B680A4ADA627B6800221A637B6858
:103FB000202283F83D207B68002283F83E20786829
:103FC000FEF765FE00BF1037BD4680BDD53F000837
:103FD0000000FFFF80B586B000AF78600023FB6073
:103FE0007B685B6A7B617B6993F83D30FB744B4B6C
:103FF0001B68DB084A4AA2FB03231A0A13469B00EC
:104000001344DA00D31AFB60FB68002B06D17B69EE
:104010001B6C43F020027B691A640AE0FB68013BD9
:10402000FB607B691B681B6803F40073B3F5007FBA
:10403000EAD07B695B6B002B03D07B695B6B002252
:104040009A627B699B6B002B03D07B699B6B002280
:104050009A627B691B681A687B691B6822F480621C
:104060001A607B6900225A857B695B6B002B03D049
:104070007B695B6B00225A637B699B6B002B03D0CF
:104080007B699B6B00225A637B691B681A687B699A
:104090001B6822F001021A607B6993F83D30DBB2A5
:1040A000602B0ED17B69202283F83D207B690022A2
:1040B00083F83E207B6900221A647869FEF7F9FDD7
:1040C00027E0FB7C03F02803282B17D17B691B68B2
:1040D0001A687B691B6842F001021A607B691B68E1
:1040E0001A687B691B6842F480621A607B6900224F
:1040F0001A637B69282283F83D2007E07B69202230
:1041000083F83D207B69002283F83E20786904F023
:1041100041F900BF1837BD4680BD00BF0000002038
:1041200089B5F81480B485B000AF78600023FB60D7
:10413000134B1B68DB08134AA2FB03231A0A13461E
:104140009B001344FB60FB68013BFB60FB68002B9A
:1041500007D17B681B6C43F020027B681A64012343
:1041600008E07B681B681B6803F40073B3F5007FED
:10417000E9D0002318461437BD4680BC704700BF05
:104180000000002089B5F81480B483B000AF7860D7
:104190007B68DB6AB3F52A0F03D17B680122DA6200
:1041A00007E07B68DB6AB3F12A4F02D17B68082203
:1041B000DA6200BF0C37BD4680BC704780B485B062
:1041C00000AF78600023FB737B6893F82130DBB28B
:1041D000022B08D07B6804229A637B68002283F854
:1041E0002020012320E07B681B681A687B681B681D
:1041F00022F00E021A607B681B681A687B681B68D5
:1042000022F001021A607B681A6C7B68DB6B01216B
:1042100001FA02F25A607B68012283F821207B6850
:10422000002283F82020FB7B18461437BD4680BC53
:104230007047000080B584B000AF78600023FB7346
:104240007B6893F82130DBB2022B05D07B68042217
:104250009A630123FB7351E07B681B681A687B68D3
:104260001B6822F00E021A607B681B681A687B6864
:104270001B6822F001021A607B681B68224A934285
:1042800029D07B681B68214A934222D07B681B6837
:104290001F4A93421AD07B681B681E4A934212D071
:1042A0007B681B681C4A93420AD07B681B681B4AC8
:1042B000934202D14FF480130EE04FF080730BE075
:1042C0004FF4803308E04FF4805305E04FF48073DF
:1042D00002E0102300E00123114A53607B680122B1
:1042E00083F821207B68002283F820207B685B6BA9
:1042F000002B03D07B685B6B78689847FB7B184684
:104300001037BD4680BD00BF080002401C000240BF
:104310003000024044000240580002406C0002405D
:104320000000024080B483B000AF78607B6893F8EF
:104330002130DBB218460C37BD4680BC7047000008
:1043400080B485B000AF78607B6803F00703FB6042
:104350000C4BDB68BB60BA684FF6FF031340BB60D1
:10436000FB681A02BB68134343F0BF6343F4003396
:10437000BB60044ABB68D36000BF1437BD4680BC35
:10438000704700BF00ED00E080B400AF044BDB6875
:104390001B0A03F007031846BD4680BC704700BFE8
:1043A00000ED00E080B483B000AF0346FB7197F9E5
:1043B0000730002B0BDBFB7903F01F02064997F94E
:1043C00007305B09012000FA02F241F8232000BF08
:1043D0000C37BD4680BC704700E100E080B483B07C
:1043E00000AF03463960FB7197F90730002B0ADBF9
:1043F0003B68DAB20C4997F907301201D2B20B448C
:1044000083F800230AE03B68DAB20849FB7903F03D
:104410000F03043B1201D2B20B441A7600BF0C37D3
:10442000BD4680BC704700BF00E100E000ED00E049
:1044300080B489B000AFF860B9607A60FB6803F0BF
:104440000703FB61FB69C3F10703042B28BF0423A7
:10445000BB61FB690433062B02D9FB69033B00E017
:1044600000237B614FF0FF32BB6902FA03F3DA43AA
:10447000BB681A407B699A404FF0FF317B6901FAB3
:1044800003F3D9437B680B40134318462437BD46DA
:1044900080BC704780B582B000AF78607B68013B1C
:1044A000B3F1807F01D301230FE00A4A7B68013B0F
:1044B00053600F214FF0FF30FFF790FF054B0022B4
:1044C0009A60044B07221A60002318460837BD463D
:1044D00080BD00BF10E000E080B582B000AF786022
:1044E0007868FFF72DFF00BF0837BD4680BD80B557
:1044F00086B000AF0346B9607A60FB7300237B612E
:10450000FFF742FF78617A68B9687869FFF790FF32
:10451000024697F90F3011461846FFF75FFF00BFBC
:104520001837BD4680BD80B582B000AF0346FB7131
:1045300097F907301846FFF735FF00BF0837BD462B
:1045400080BD80B582B000AF78607868FFF7A2FFC9
:10455000034618460837BD4680BD80B582B000AF1F
:1045600078607B68002B01D1012342E07B6893F8DF
:104570004130DBB2002B06D17B68002283F840205B
:10458000786801F081F97B68242283F841207B68F8
:104590001B68DA687B681B6822F40052DA6078686E
:1045A00000F0C2FC7B681B681A697B681B6822F4F8
:1045B00090421A617B681B685A697B681B6822F00D
:1045C0002A025A617B681B68DA687B681B6842F4C0
:1045D0000052DA607B6800225A647B68202283F8EC
:1045E00041207B68202283F842207B6800225A63A6
:1045F000002318460837BD4680BD80B584B000AFA3
:10460000F860B9601346FB80FB6893F84230DBB278
:10461000202B12D1BB68002B02D0FB88002B01D1CC
:1046200001230BE0FB6800221A63FB881A46B96875
:10463000F86800F0A4FA034600E002231846103799
:10464000BD4680BD80B5BAB000AF78607B681B689E
:104650001B68C7F8E4307B681B68DB68C7F8E0308C
:104660007B681B685B69C7F8DC300023C7F8D8306B
:104670000023C7F8D430D7F8E43003F00F03C7F8AD
:10468000D830D7F8D830002B0FD1D7F8E43003F06A
:104690002003002B09D0D7F8E03003F02003002BD3
:1046A00003D0786800F081FB5BE2D7F8D830002BAC
:1046B00000F0DE80D7F8DC3003F00103002B06D1D8
:1046C000D7F8E03003F49073002B00F0D180D7F8D6
:1046D000E43003F00103002B0BD0D7F8E03003F4F3
:1046E0008073002B05D07B685B6C43F001027B6814
:1046F0005A64D7F8E43003F00403002B0BD0D7F84A
:10470000DC3003F00103002B05D07B685B6C43F0C9
:1047100002027B685A64D7F8E43003F00203002BEE
:104720000BD0D7F8DC3003F00103002B05D07B68F9
:104730005B6C43F004027B685A64D7F8E43003F002
:104740000803002B11D0D7F8E03003F02003002B32
:1047500005D1D7F8DC3003F00103002B05D07B68CE
:104760005B6C43F008027B685A647B685B6C002BCF
:1047700000F0F281D7F8E43003F02003002B08D0DA
:10478000D7F8E03003F02003002B02D0786800F067
:104790000CFB7B681B685B6903F04003002B14BFB4
:1047A00001230023DBB2C7F8D4307B685B6C03F0D5
:1047B0000803002B03D1D7F8D430002B4FD07868F2
:1047C00000F016FA7B681B685B6903F04003002B5E
:1047D00041D07B681B681433C7F89C30D7F89C30F5
:1047E00053E8003FC7F89830D7F8983023F04003DB
:1047F000C7F8D0307B681B681433D7F8D020C7F8CF
:10480000A820C7F8A430D7F8A410D7F8A82041E80A
:104810000023C7F8A030D7F8A030002BD9D17B688F
:10482000DB6B002B13D07B68DB6B7E4A5A637B68A3
:10483000DB6B1846FFF7FEFC0346002B16D07B68A7
:10484000DB6B5B6B7A68D26B104698470EE078683A
:1048500004F0BCF80AE0786804F0B8F806E078687C
:1048600004F0B4F87B6800225A6475E100BF73E17C
:104870007B681B6B012B40F04F81D7F8E43003F0CD
:104880001003002B00F04881D7F8E03003F010034C
:10489000002B00F041810023BB607B681B681B6814
:1048A000BB607B681B685B68BB60BB687B681B6820
:1048B0005B6903F04003002B00F0B6807B68DB6B84
:1048C0001B685B68A7F8BE30B7F8BE30002B00F05D
:1048D00045817B689B8DB7F8BE209A4280F03E816F
:1048E0007B68B7F8BE20DA857B68DB6B9B69202B81
:1048F00000F088807B681B680C33C7F88830D7F8D5
:10490000883053E8003FC7F88430D7F8843023F468
:104910008073C7F8B8307B681B680C33D7F8B820B1
:10492000C7F89420C7F89030D7F89010D7F89420A3
:1049300041E80023C7F88C30D7F88C30002BD9D150
:104940007B681B6814337B677B6F53E8003F3B67D2
:104950003B6F23F00103C7F8B4307B681B68143346
:10496000D7F8B420C7F88020FB67F96FD7F880200C
:1049700041E80023BB67BB6F002BE1D17B681B685C
:1049800014333B663B6E53E8003FFB65FB6D23F041
:104990004003C7F8B0307B681B681433D7F8B020E9
:1049A000FA66BB66B96EFA6E41E800237B667B6EE1
:1049B000002BE3D17B68202283F842207B68002211
:1049C0001A637B681B680C33FB64FB6C53E8003F85
:1049D000BB64BB6C23F01003C7F8AC307B681B686A
:1049E0000C33D7F8AC20BA657B65796DBA6D41E8B8
:1049F00000233B653B6D002BE3D17B68DB6B1846E6
:104A0000FFF7DCFB7B6802225A637B689A8D7B6828
:104A1000DB8D9BB2D31A9BB21946786800F0A4F8DC
:104A20009CE000BFB54C00087B689A8D7B68DB8DED
:104A30009BB2D31AA7F8CE307B68DB8D9BB2002BDC
:104A400000F08E80B7F8CE30002B00F089807B68B4
:104A50001B680C33BB63BB6B53E8003F7B637B6B12
:104A600023F49073C7F8C8307B681B680C33D7F801
:104A7000C8207A643B64396C7A6C41E80023FB639C
:104A8000FB6B002BE3D17B681B6814337B627B6A72
:104A900053E8003F3B623B6A23F00103C7F8C43090
:104AA0007B681B681433D7F8C4203A63FB62F96A49
:104AB0003A6B41E80023BB62BB6A002BE3D17B6801
:104AC000202283F842207B6800221A637B681B68DF
:104AD0000C333B613B6953E8003FFB60FB6823F00C
:104AE0001003C7F8C0307B681B680C33D7F8C020B0
:104AF000FA61BB61B969FA6941E800237B617B69AE
:104B0000002BE3D17B6802225A63B7F8CE301946F6
:104B1000786800F029F823E0D7F8E43003F0800348
:104B2000002B09D0D7F8E03003F08003002B03D02E
:104B3000786800F0D3F814E0D7F8E43003F04003CD
:104B4000002B0ED0D7F8E03003F04003002B08D044
:104B5000786800F012F904E000BF02E000BF00E056
:104B600000BFE837BD4680BD80B483B000AF786039
:104B70000B467B8000BF0C37BD4680BC704780B4BD
:104B800085B000AFF860B9601346FB80FB68BA6877
:104B90009A62FB68FA889A85FB68FA88DA85FB686E
:104BA00000225A64FB68222283F84220FB681B69BA
:104BB000002B07D0FB681B68DA68FB681B6842F4AF
:104BC0008072DA60FB681B685A69FB681B6842F0F8
:104BD00001025A61FB681B68DA68FB681B6842F0D7
:104BE0002002DA60002318461437BD4680BC7047A7
:104BF00080B495B000AF78607B681B680C337B6332
:104C00007B6B53E8003F3B633B6B23F49073FB6487
:104C10007B681B680C33FA6C3A64FB63F96B3A6C83
:104C200041E80023BB63BB6B002BE5D17B681B68AD
:104C300014333B623B6A53E8003FFB61FB6923F09E
:104C40000103BB647B681B681433BA6CFA62BB62F5
:104C5000B96AFA6A41E800237B627B6A002BE5D1DE
:104C60007B681B6B012B19D17B681B680C33FB60C5
:104C7000FB6853E8003FBB60BB6823F010037B6414
:104C80007B681B680C337A6CBA617B617969BA699D
:104C900041E800233B613B69002BE5D17B68202282
:104CA00083F842207B6800221A6300BF5437BD4658
:104CB00080BC704780B584B000AF78607B685B6A69
:104CC000FB60FB680022DA85FB680022DA84F86862
:104CD00003F07CFE00BF1037BD4680BD80B485B0B8
:104CE00000AF78607B6893F84130DBB2212B3ED176
:104CF0007B689B68B3F5805F14D17B681B69002BD0
:104D000010D17B681B6AFB60FB681B881A467B68B6
:104D10001B68C2F308025A607B681B6A9A1C7B6896
:104D20001A6208E07B681B6A591C7A6811621A785B
:104D30007B681B685A607B68DB8C9BB2013B9BB233
:104D40007A681946D184002B0FD17B681B68DA681A
:104D50007B681B6822F08002DA607B681B68DA6877
:104D60007B681B6842F04002DA60002300E0022307
:104D700018461437BD4680BC704780B582B000AF7E
:104D800078607B681B68DA687B681B6822F04002E9
:104D9000DA607B68202283F84120786803F00BFEFC
:104DA000002318460837BD4680BD80B58CB000AFE3
:104DB00078607B6893F84230DBB2222B40F0AE8003
:104DC0007B689B68B3F5805F17D17B681B69002BFC
:104DD00013D10023FB627B689B6ABB627B681B6804
:104DE0005B689BB2C3F308039AB2BB6A1A807B6804
:104DF0009B6A9A1C7B689A6226E07B689B6AFB62CE
:104E00000023BB627B689B68B3F5805F07D07B683B
:104E10009B68002B0AD17B681B69002B06D17B683D
:104E20001B685B68DAB2FB6A1A7008E07B681B6873
:104E30005B68DBB203F07F03DAB2FB6A1A707B684F
:104E40009B6A5A1C7B689A627B68DB8D9BB2013B34
:104E50009BB27A681946D185002B5DD17B681B68AF
:104E6000DA687B681B6822F02002DA607B681B68C6
:104E7000DA687B681B6822F48072DA607B681B68E2
:104E80005A697B681B6822F001025A617B68202204
:104E900083F842207B6800225A637B681B6B012BDE
:104EA00035D17B6800221A637B681B680C337B61F9
:104EB0007B6953E8003F3B613B6923F010037B6251
:104EC0007B681B680C337A6A3A62FB61F9693A6A5B
:104ED00041E80023BB61BB69002BE5D17B681B68FF
:104EE0001B6803F01003102B0AD10023FB607B68C2
:104EF0001B681B68FB607B681B685B68FB60FB686A
:104F00007B689B8D19467868FFF72EFE02E0786873
:104F100003F040FD002302E0002300E002231846D6
:104F20003037BD4680BD000080B584B000AF7860EA
:104F30007B681B681B6923F440517B68DA687B68D7
:104F40001B680A431A617B689A687B681B691A436D
:104F50007B685B691343BB607B681B68DB6823F479
:104F6000B05323F00C037A681268B9680B43D3601E
:104F70007B681B685B6923F440717B689A697B6876
:104F80001B680A435A617B681B682C4A934203D111
:104F9000FDF734F8F86002E0FDF71CF8F860FA68F5
:104FA00013469B0013449A001A447B685B689B007D
:104FB000B2FBF3F3224AA2FB03235B091901FA684F
:104FC00013469B0013449A001A447B685B689B005D
:104FD000B2FBF3F21A4BA3FB02035B09642000FB54
:104FE00003F3D31A1B013233154AA2FB03235B09D7
:104FF00003F0F0031944FA6813469B0013449A0027
:105000001A447B685B689B00B2FBF3F20C4BA3FB7A
:1050100002035B09642000FB03F3D31A1B01323344
:10502000074AA2FB03235B0903F00F027B681B689E
:105030000A449A6000BF1037BD4680BD0038014069
:105040001F85EB5180B500AFFCF798FB00F015F819
:1050500000F06CF800F0D8F800F072F900F0C4F934
:1050600000F044FA00F092FB00F0BAFB00F0E2FB23
:1050700001F012FE02F0F4FAFCE780B590B000AF48
:1050800007F11803282200211846FBF737FB3B1DC8
:1050900000221A605A609A60DA601A610123BB61CB
:1050A0004FF48033FB6100233B620123BB62022388
:1050B0007B634FF48033BB634FF4E013FB6307F172
:1050C00018031846FCF7BCFB0346002B01D000F088
:1050D00019F80F237B600223BB600023FB604FF4B1
:1050E00080633B6100237B613B1D02211846FCF776
:1050F00029FE0346002B01D000F004F800BF403722
:10510000BD4680BD80B400AF064B00225A63054BFC
:1051100000229A63044B4FF470425A6172B600BF8A
:1051200000BFFDE700040040000C014080B588B0DE
:1051300000AF07F1100300221A605A609A60DA602B
:105140002E4B9B692D4A43F0100393612B4B9B69B7
:1051500003F01003FB60FB68284B9B69274A43F070
:1051600020039361254B9B6903F02003BB60BB6860
:10517000224B9B69214A43F0040393611F4B9B69B7
:1051800003F004037B607B681C4B9B691B4A43F064
:1051900008039361194B9B6903F008033B603B686C
:1051A00001224FF400511648FDF7DEF800224FF4BB
:1051B00070411448FDF7D8F84FF400533B610123C8
:1051C0007B610023BB610223FB6107F110031946D9
:1051D0000B48FCF745FF4FF470433B6101237B61B3
:1051E0000023BB610223FB6107F110031946054848
:1051F000FCF736FF00BF2037BD4680BD00100240DF
:1052000000100140000C014080B500AF124B134A62
:105210001A60114B124A5A600F4B00229A600E4BD3
:105220000022DA600C4B4FF480421A610A4B0022D4
:105230005A61094B00229A61074B0022DA61064B42
:1052400000221A620448FDF7C1F80346002B01D082
:10525000FFF758FF00BF80BD300000200054004021
:10526000A086010080B58AB000AF786007F1140312
:1052700000221A605A609A60DA607B681B682C4AC8
:10528000934251D12B4B9B692A4A43F0010393610E
:10529000284B9B6903F001033B613B69254B9B69EC
:1052A000244A43F008039361224B9B6903F00803EF
:1052B000FB60FB681F4BDB691E4A43F40013D3619C
:1052C0001C4BDB6903F40013BB60BB681A4B5B68C3
:1052D0007B627B6A43F0E0637B627B6A43F002039C
:1052E0007B62154A7B6A53604FF440737B611223E3
:1052F000BB610123FB6103233B6207F114031946E1
:105300000E48FCF7ADFE002205211F20FFF7EFF845
:105310001F20FFF708F9002205212020FFF7E7F8FA
:105320002020FFF700F900E000BF2837BD4680BD10
:10533000005400400010024000000140000C0140F9
:1053400080B58CB000AF07F10C0324220021184671
:10535000FBF7D4F93B1D00221A605A60214B4FF035
:1053600080421A601F4B00225A601E4B00229A6036
:105370001C4B4FF6FF72DA601A4B00221A61194B70
:1053800000229A610323FB6000233B6101237B61C0
:105390000023BB610823FB6100233B6201237B6286
:1053A0000023BB620823FB6207F10C0319460D487A
:1053B000FBF784FB0346002B01D0FFF7A3FE00237D
:1053C0007B600023BB603B1D19460648FCF778F95B
:1053D0000346002B01D0FFF795FE00BF3037BD46D6
:1053E00080BD00BF8400002080B58EB000AF07F103
:1053F000280300221A605A609A60DA6007F12003DD
:1054000000221A605A603B1D00221A605A609A609E
:10541000DA601A615A619A61324B334A1A60314B31
:1054200000225A602F4B00229A602E4B40F60F62EA
:10543000DA602C4B00221A612A4B00229A6129481B
:10544000FBF78EF90346002B01D0FFF75BFE4FF40C
:105450008053BB6207F1280319462248FBF7B8FDC9
:105460000346002B01D0FFF74DFE1E48FBF7C7F99E
:105470000346002B01D0FFF745FE00233B620023CB
:105480007B6207F1200319461648FCF719F9034619
:10549000002B01D0FFF736FE60237B600023BB604A
:1054A0000023FB6000237B613B1D002219460D4851
:1054B000FBF7CCFC0346002B01D0FFF723FE3B1D7E
:1054C000042219460748FBF7C1FC0346002B01D014
:1054D000FFF718FE034800F013F900BF3837BD4648
:1054E00080BD00BFCC0000200004004080B58CB01F
:1054F00000AF07F10C03242200211846FBF7FEF849
:105500003B1D00221A605A60204B214A1A601F4B33
:1055100000225A601D4B00229A601C4B4FF6FF720E
:10552000DA601A4B00221A61184B00229A61032399
:10553000FB6000233B6101237B610023BB610823E7
:10554000FB6100233B6201237B620023BB620823D3
:10555000FB6207F10C0319460C48FBF7AFFA034650
:10556000002B01D0FFF7CEFD00237B600023BB6042
:105570003B1D19460548FCF7A3F80346002B01D054
:10558000FFF7C0FD00BF3037BD4680BD14010020CD
:105590000008004080B58CB000AF786007F11C03B4
:1055A00000221A605A609A60DA607B681B68B3F167
:1055B000804F4FD13E4BDB693D4A43F00103D3613D
:1055C0003B4BDB6903F00103BB61BB69384B9B6953
:1055D000374A43F004039361354B9B6903F004039E
:1055E0007B617B69324B9B69314A43F008039361CD
:1055F0002F4B9B6903F008033B613B694FF4004369
:10560000FB6100233B6200237B6207F11C03194608
:105610002848FCF725FD0823FB6100233B6200239B
:105620007B6207F11C0319462348FCF719FD234B45
:105630005B68FB62FB6A23F44073FB62FB6A43F026
:10564000E063FB62FB6A43F48073FB621B4AFB6A04
:10565000536028E07B681B68194A934223D1144B9E
:10566000DB69134A43F00403D361114BDB6903F098
:105670000403FB60FB680E4B9B690D4A43F0080373
:1056800093610B4B9B6903F00803BB60BB68C023AD
:10569000FB6100233B6200237B6207F11C03194678
:1056A0000548FCF7DDFC00BF3037BD4680BD00BFBC
:1056B0000010024000080140000C014000000140C1
:1056C0000008004080B485B000AF78607B681B683C
:1056D000094A93420BD1094BDB69084A43F00203A4
:1056E000D361064BDB6903F00203FB60FB6800BF7C
:1056F0001437BD4680BC70470004004000100240D3
:1057000080B588B000AF786007F10C0300221A6002
:105710005A609A60DA607B681B68184A934229D104
:10572000174B9B69164A43F008039361144B9B691E
:1057300003F00803BB60BB683023FB6002233B61BE
:105740000223BB6107F10C0319460E48FCF788FCE5
:105750000D4B5B68FB61FB6923F44063FB61FB69F4
:1057600043F0E063FB61FB6943F40063FB61064ABD
:10577000FB69536000BF2037BD4680BD0004004078
:1057800000100240000C01400000014080B500AF55
:10579000114B124A1A60104B4FF4E1325A600E4B13
:1057A00000229A600C4B0022DA600B4B00221A6137
:1057B000094B0C225A61084B00229A61064B0022C9
:1057C000DA610548FEF7C9FE0346002B01D0FFF75A
:1057D00099FC00BF80BD00BF5C0100200038014083
:1057E00080B500AF114B124A1A60104B4FF4E132F2
:1057F0005A600E4B00229A600C4B0022DA600B4B71
:1058000000221A61094B0C225A61084B00229A614E
:10581000064B0022DA610548FEF79FFE0346002B87
:1058200001D0FFF76FFC00BF80BD00BFA4010020C6
:105830000044004080B500AF114B124A1A60104B73
:105840004FF4E1325A600E4B00229A600C4B00225A
:10585000DA600B4B00221A61094B0C225A61084B8B
:1058600000229A61064B0022DA610548FEF775FEB8
:105870000346002B01D0FFF745FC00BF80BD00BFF1
:10588000EC0100200048004080B58CB000AF78608B
:1058900007F1200300221A605A609A60DA607B6880
:1058A0001B685F4A93423AD15E4B9B695D4A43F461
:1058B000804393615B4B9B6903F48043FB61FB690D
:1058C000584B9B69574A43F004039361554B9B69BE
:1058D00003F00403BB61BB694FF400733B62022316
:1058E0007B620323FB6207F1200319464E48FCF755
:1058F000B7FB4FF480633B6200237B620123BB62F2
:1059000007F1200319464848FCF7AAFB00220521AD
:105910002520FEF7ECFD2520FEF705FE7CE07B68E8
:105920001B68424A934238D13E4BDB693D4A43F4FF
:105930000033D3613B4BDB6903F400337B617B694C
:10594000384B9B69374A43F004039361354B9B699D
:1059500003F004033B613B6904233B6202237B6247
:105960000323FB6207F1200319462F48FCF778FB5D
:1059700008233B6200237B620123BB6207F1200303
:1059800019462948FCF76CFB002205212620FEF76A
:10599000AEFD2620FEF7C7FD3EE07B681B68244A6B
:1059A000934239D11F4BDB691E4A43F48023D361F4
:1059B0001C4BDB6903F48023FB60FB68194B9B697C
:1059C000184A43F008039361164B9B6903F00803E0
:1059D000BB60BB684FF480633B6202237B6203239E
:1059E000FB6207F1200319461248FCF739FB4FF41C
:1059F00000633B6200237B620123BB6207F120034B
:105A000019460C48FCF72CFB002205212720FEF745
:105A10006EFD2720FEF787FD00BF3037BD4680BDF5
:105A200000380140001002400008014000440040DE
:105A300000480040000C014080B400AF00BFFDE70B
:105A400080B400AF00BFFDE780B400AF00BFFDE74A
:105A500080B400AF00BFFDE780B400AF00BFFDE73A
:105A600080B400AF00BFBD4680BC704780B400AFBB
:105A700000BFBD4680BC704780B400AF00BFBD46CC
:105A800080BC704780B500AFFBF7BEFE00BF80BD95
:105A900080B500AF0248FEF7D5FD00BF80BD00BF56
:105AA0005C01002080B500AF0248FEF7CBFD00BFCF
:105AB00080BD00BFA401002080B500AF0248FEF702
:105AC000C1FD00BF80BD00BFEC01002080B500AF6C
:105AD0000248FCF78BFE00BF80BD00BF30000020F5
